:100000000C9434000C9451000C9451000C94510049
:100010000C9451000C944D010C9451000C949D01D2
:100020000C94A7010C9493010C9451000C947F0143
:100030000C9489010C9475010C9461010C946B0172
:100040000C9457010C9451000C94E4010C94510051
:100050000C94B1010C9451000C9451000C9451007B
:100060000C9451000C94510011241FBECFEFD8E026
:10007000DEBFCDBF11E0A0E0B1E0E4E6F5E002C0F4
:1000800005900D92AE30B107D9F711E0AEE0B1E0C6
:1000900001C01D92AF33B107E1F70E9453000C94E9
:1000A000B0020C94000088E090E00E942002789456
:1000B00080E091E00E945D020E943D028093150164
:1000C0009093160164E071E00E9491020097A1F7FD
:1000D00088E091E00E945D02FBCF84B9089587B962
:1000E00008958AB9089593B160E070E040E050E06F
:1000F00021E030E002C0220F331F8A95E2F7232B64
:1001000011F441E050E0892F90E048235923452B1A
:1001100011F461E070E0CB01089596B160E070E009
:1001200040E050E021E030E002C0220F331F8A950A
:10013000E2F7232B11F441E050E0892F90E04823AF
:100140005923452B11F461E070E0CB01089599B17A
:1001500060E070E040E050E021E030E002C0220FBB
:10016000331F8A95E2F7232B11F441E050E0892FE9
:1001700090E048235923452B11F461E070E0CB0156
:100180000895382F672B61F025B181E090E002C01F
:10019000880F991F3A95E2F78095822385B90895D3
:1001A00025B181E090E002C0880F991F3A95E2F7EF
:1001B000282B25B90895382F672B61F028B181E0ED
:1001C00090E002C0880F991F3A95E2F7809582234C
:1001D00088B9089528B181E090E002C0880F991F86
:1001E0003A95E2F7282B28B90895382F672B61F04C
:1001F0002BB181E090E002C0880F991F3A95E2F799
:10020000809582238BB908952BB181E090E002C0E4
:10021000880F991F3A95E2F7282B2BB90895AC0166
:100220008830910584F480916B0021E030E002C0B9
:10023000220F331F4A95E2F7822B80936B00809147
:100240006800816026C08F30910594F480916C0025
:100250004750504021E030E002C0220F331F4A9542
:10026000E2F7822B80936C0080916800826011C05D
:1002700080916D004E50504021E030E002C0220FCE
:10028000331F4A95E2F7822B80936D0080916800BE
:10029000846080936800789408951F920F920FB63F
:1002A0000F9211240F900FBE0F901F9018951F9260
:1002B0000F920FB60F9211240F900FBE0F901F9048
:1002C00018951F920F920FB60F9211240F900FBE28
:1002D0000F901F9018951F920F920FB60F92112436
:1002E0000F900FBE0F901F9018951F920F920FB690
:1002F0000F9211240F900FBE0F901F9018951F9210
:100300000F920FB60F9211240F900FBE0F901F90F7
:1003100018951F920F920FB60F9211240F900FBED7
:100320000F901F9018951F920F920FB60F921124E5
:100330000F900FBE0F901F9018951F920F920FB63F
:100340000F9211240F900FBE0F901F9018951F92BF
:100350000F920FB60F9211240F900FBE0F901F90A7
:1003600018951F920F920FB60F9211242F933F935F
:100370008F939F93EF93FF9320911201309113017C
:1003800080911001909111012817390780F4809114
:10039000120190911301FC01E55DFE4F2081209335
:1003A000C6000196909313018093120102C010922F
:1003B0001401FF91EF919F918F913F912F910F9099
:1003C0000FBE0F901F9018951F920F920FB60F92AD
:1003D00011242F938F939F93EF93FF9380910E019E
:1003E00090910F01449780F480910E0190910F013C
:1003F0002091C600FC01E95EFE4F20830196909398
:100400000F0180930E0104C010920F0110920E0193
:10041000FF91EF919F918F912F910F900FBE0F90B1
:100420001F90189584B5836884BD85B5816085BDAE
:10043000EEE6F0E080818360808317BC78940895B5
:100440009093C5008093C40088ED8093C10086E03E
:100450008093C200E0ECF0E080818D7F808308957E
:100460001092170110922B0110920F0110920E01A1
:10047000109213011092120108950F931F93DF93AE
:10048000CF93CDB7DEB764970FB6F894DEBF0FBE3B
:10049000CDBF8E010F5F1F4FC80167E171E00E9461
:1004A0009A02C80164960FB6F894DEBF0FBECDBFA6
:1004B000CF91DF911F910F910895BC01809114019C
:1004C000882371F51092130110921201FB01019023
:1004D0000020E9F73197E61BF70BF0931101E09349
:1004E000100175973CF08BE291E044E150E00E94EE
:1004F000A10204C08BE291E00E949A028091120155
:1005000090911301FC01E55DFE4F20812093C60010
:100510000196909313018093120181E0809314015E
:100520000895FB01DC018D91019080190110D9F330
:10053000990B0895FB01DC0101900D920020E1F779
:100540000895FB01DC014150504048F001900D92AC
:100550000020C9F701C01D9241505040E0F70895B6
:04056000F894FFCF3D
:0E05640024242400434D44002D2D2D0A0D00AB
:00000001FF
