:100000000C9434000C9451000C9451000C94510049
:100010000C9451000C9440010C9451000C949001EC
:100020000C949A010C9486010C9451000C9472016A
:100030000C947C010C9468010C9454010C945E01A6
:100040000C944A010C9451000C94A4010C9451009E
:100050000C94D2010C9451000C9451000C9451005A
:100060000C9451000C94510011241FBECFEFD8E026
:10007000DEBFCDBF11E0A0E0B1E0E8E0F5E002C0F6
:1000800005900D92AE31B107D9F711E0AEE1B1E0C4
:1000900001C01D92AD34B107E1F70E9453000C94EA
:1000A00082020C94000087E690E00E94250280E224
:1000B00090E00E94600080E091E00E943502FBCF5A
:1000C00084B9089587B908958AB9089593B160E015
:1000D00070E040E050E021E030E002C0220F331F2A
:1000E0008A95E2F7232B11F441E050E0892F90E04C
:1000F00048235923452B11F461E070E0CB010895AA
:1001000096B160E070E040E050E021E030E002C0F5
:10011000220F331F8A95E2F7232B11F441E050E0C0
:10012000892F90E048235923452B11F461E070E0BA
:10013000CB01089599B160E070E040E050E021E02B
:1001400030E002C0220F331F8A95E2F7232B11F40F
:1001500041E050E0892F90E048235923452B11F4CA
:1001600061E070E0CB010895382F672B61F025B175
:1001700081E090E002C0880F991F3A95E2F78095E0
:10018000822385B9089525B181E090E002C0880FEF
:10019000991F3A95E2F7282B25B90895382F672B38
:1001A00061F028B181E090E002C0880F991F3A9574
:1001B000E2F78095822388B9089528B181E090E024
:1001C00002C0880F991F3A95E2F7282B28B90895A5
:1001D000382F672B61F02BB181E090E002C0880FCF
:1001E000991F3A95E2F7809582238BB908952BB138
:1001F00081E090E002C0880F991F3A95E2F7282B22
:100200002BB90895AC018830910584F480916B007E
:1002100021E030E002C0220F331F4A95E2F7822B23
:1002200080936B0080916800816026C08F309105BB
:1002300094F480916C004750504021E030E002C0BF
:10024000220F331F4A95E2F7822B80936C00809136
:100250006800826011C080916D004E50504021E0D6
:1002600030E002C0220F331F4A95E2F7822B8093C1
:100270006D00809168008460809368007894089590
:100280001F920F920FB60F9211240F900FBE0F9076
:100290001F9018951F920F920FB60F9211240F9076
:1002A0000FBE0F901F9018951F920F920FB60F92CE
:1002B00011240F900FBE0F901F9018951F920F9250
:1002C0000FB60F9211240F900FBE0F901F9018952C
:1002D0001F920F920FB60F9211240F900FBE0F9026
:1002E0001F9018951F920F920FB60F9211240F9026
:1002F0000FBE0F901F9018951F920F920FB60F927E
:1003000011240F900FBE0F901F9018951F920F92FF
:100310000FB60F9211240F900FBE0F901F901895DB
:100320001F920F920FB60F9211240F900FBE0F90D5
:100330001F9018951F920F920FB60F9211240F90D5
:100340000FBE0F901F9018951F920F920FB60F922D
:1003500011242F938F939F93EF93FF9380911E010E
:1003600090911F01449780F480911E0190911F018C
:100370002091C600FC01EB5DFE4F20830196909317
:100380001F0180931E0104C010921F0110921E01D4
:10039000FF91EF919F918F912F910F900FBE0F9032
:1003A0001F9018951F920F920FB60F9211242F9342
:1003B0003F934F935F936F937F938F939F93AF93ED
:1003C000BF93EF93FF9320912201309123018091FD
:1003D00020019091210128173907B0F48091220162
:1003E00090912301FC01E75CFE4F20812093C60021
:1003F0000196909323018093220185E090E060E0D4
:1004000070E00E94B40002C010922401FF91EF91AD
:10041000BF91AF919F918F917F916F915F914F911C
:100420003F912F910F900FBE0F901F90189584B59C
:10043000836884BD85B5816085BDEEE6F0E080818E
:100440008360808317BC789408959093C50080934F
:10045000C40088ED8093C10086E08093C200E0EC88
:10046000F0E080818D7F80830895BC01809124011C
:10047000882389F51092230110922201A0E1B1E0B6
:10048000FD0101900020E9F73197EA1BFB0BF09387
:100490002101E093200175973CF089E391E044E16C
:1004A00050E00E94730205C089E391E0BD010E9403
:1004B0006C028091220190912301FC01E75CFE4FC8
:1004C00020812093C60001969093230180932201FE
:1004D00081E0809324010895FB01DC0101900D92DD
:1004E0000020E1F70895FB01DC014150504048F045
:1004F00001900D920020C9F701C01D92415050405B
:08050000E0F70895F894FFCF25
:1005080048656C6C6F20576F726C642F722F6E0089
:0E05180053616D706C6520737472696E6700BC
:00000001FF
