:100000000C9434000C943E000C943E000C943E0082
:100010000C943E000C942E010C943E000C947E0136
:100020000C9488010C9474010C943E000C946001B3
:100030000C946A010C9456010C9442010C944C01EE
:100040000C9438010C943E000C943E000C943E003D
:100050000C943E000C943E000C943E000C943E0028
:100060000C943E000C943E0011241FBECFEFD8E04C
:10007000DEBFCDBF0E9440000C94BF010C94000075
:1000800087E690E00E94A00181E30E94B001FCCFCE
:1000900094B1982B94B9089597B1982B97B9089576
:1000A0009AB1982B9AB9089593B160E070E040E05E
:1000B00050E021E030E002C0220F331F8A95E2F7C2
:1000C000232B11F441E050E0892F90E0482359237D
:1000D000452B11F461E070E0CB01089596B160E02A
:1000E00070E040E050E021E030E002C0220F331F1A
:1000F0008A95E2F7232B11F441E050E0892F90E03C
:1001000048235923452B11F461E070E0CB01089599
:1001100099B160E070E040E050E021E030E002C0E2
:10012000220F331F8A95E2F7232B11F441E050E0B0
:10013000892F90E048235923452B11F461E070E0AA
:10014000CB010895382F672B61F025B181E090E055
:1001500002C0880F991F3A95E2F78095822385B9EE
:10016000089525B181E090E002C0880F991F3A956B
:10017000E2F7282B25B90895382F672B61F028B1B5
:1001800081E090E002C0880F991F3A95E2F78095D0
:10019000822388B9089528B181E090E002C0880FD9
:1001A000991F3A95E2F7282B28B90895382F672B25
:1001B00061F02BB181E090E002C0880F991F3A9561
:1001C000E2F7809582238BB908952BB181E090E00E
:1001D00002C0880F991F3A95E2F7282B2BB9089592
:1001E000AC018830910584F480916B0021E030E00F
:1001F00002C0220F331F4A95E2F7822B80936B00D7
:1002000080916800816026C08F30910594F48091C0
:100210006C004750504021E030E002C0220F331FF5
:100220004A95E2F7822B80936C008091680082608F
:1002300011C080916D004E50504021E030E002C06E
:10024000220F331F4A95E2F7822B80936D00809135
:100250006800846080936800789408951F920F92DC
:100260000FB60F9211240F900FBE0F901F9018958C
:100270001F920F920FB60F9211240F900FBE0F9086
:100280001F9018951F920F920FB60F9211240F9086
:100290000FBE0F901F9018951F920F920FB60F92DE
:1002A00011240F900FBE0F901F9018951F920F9260
:1002B0000FB60F9211240F900FBE0F901F9018953C
:1002C0001F920F920FB60F9211240F900FBE0F9036
:1002D0001F9018951F920F920FB60F9211240F9036
:1002E0000FBE0F901F9018951F920F920FB60F928E
:1002F00011240F900FBE0F901F9018951F920F9210
:100300000FB60F9211240F900FBE0F901F901895EB
:100310001F920F920FB60F9211240F900FBE0F90E5
:100320001F90189584B5836884BD85B5816085BDAF
:10033000EEE6F0E080818360808317BC78940895B6
:100340009093C5008093C40088E18093C1008EE043
:100350008093C200E0ECF0E080818D7F808308957F
:10036000982F8091C00085FFFCCF9093C600089520
:100370008091C00087FFFCCF8091C6000895F8945B
:02038000FFCFAD
:00000001FF
